:100000000C942A000C9453000C9434000C9434008B
:100010000C9434000C9434000C9434000C94340090
:100020000C9434000C9434000C9434000C94340080
:100030000C9434000C9434000C9434000C94340070
:100040000C9434000C9434000C9434000C94340060
:100050000C94340011241FBECFE5D8E0DEBFCDBF25
:100060000E9436000C9462000C940000F8948AB34D
:10007000806F8ABB8BB39FE089278BBB84B38FEFE4
:1000800084BB8A98929A85B7836085BF8BB780645A
:100090008BBF789420E23EE4C9010197F1F785B364
:1000A000809585BBF9CF1F920F920FB60F92112446
:1000B0008F938BB380958BBB8F910F900FBE0F905A
:0800C0001F901895F894FFCF82
:00000001FF
